{
  "_format": "hh-sol-artifact-1",
  "contractName": "HeroCore",
  "sourceName": "contracts/core/HeroCore.sol",
  "abi": [
    {
      "inputs": [],
      "stateMutability": "nonpayable",
      "type": "constructor"
    },
    {
      "anonymous": false,
      "inputs": [
        {
          "indexed": true,
          "internalType": "address",
          "name": "_owner",
          "type": "address"
        },
        {
          "indexed": true,
          "internalType": "address",
          "name": "_approved",
          "type": "address"
        },
        {
          "indexed": false,
          "internalType": "uint256",
          "name": "_tokenId",
          "type": "uint256"
        }
      ],
      "name": "Approval",
      "type": "event"
    },
    {
      "anonymous": false,
      "inputs": [
        {
          "indexed": true,
          "internalType": "address",
          "name": "_owner",
          "type": "address"
        },
        {
          "indexed": true,
          "internalType": "address",
          "name": "_operator",
          "type": "address"
        },
        {
          "indexed": false,
          "internalType": "bool",
          "name": "_approved",
          "type": "bool"
        }
      ],
      "name": "ApprovalForAll",
      "type": "event"
    },
    {
      "anonymous": false,
      "inputs": [
        {
          "indexed": true,
          "internalType": "uint256",
          "name": "_tokenId",
          "type": "uint256"
        },
        {
          "indexed": false,
          "internalType": "uint256",
          "name": "_oldQuality",
          "type": "uint256"
        },
        {
          "indexed": false,
          "internalType": "uint256",
          "name": "_newQuality",
          "type": "uint256"
        }
      ],
      "name": "HeroEvolved",
      "type": "event"
    },
    {
      "anonymous": false,
      "inputs": [
        {
          "indexed": true,
          "internalType": "uint256",
          "name": "_tokenId",
          "type": "uint256"
        },
        {
          "indexed": false,
          "internalType": "uint256",
          "name": "_quality",
          "type": "uint256"
        }
      ],
      "name": "HeroRebirthed",
      "type": "event"
    },
    {
      "anonymous": false,
      "inputs": [
        {
          "indexed": true,
          "internalType": "uint256",
          "name": "_tokenId",
          "type": "uint256"
        }
      ],
      "name": "HeroRetired",
      "type": "event"
    },
    {
      "anonymous": false,
      "inputs": [
        {
          "indexed": true,
          "internalType": "uint256",
          "name": "_tokenId",
          "type": "uint256"
        },
        {
          "indexed": true,
          "internalType": "address",
          "name": "_owner",
          "type": "address"
        },
        {
          "indexed": false,
          "internalType": "uint256",
          "name": "_quality",
          "type": "uint256"
        }
      ],
      "name": "HeroSpawned",
      "type": "event"
    },
    {
      "anonymous": false,
      "inputs": [
        {
          "indexed": true,
          "internalType": "address",
          "name": "_from",
          "type": "address"
        },
        {
          "indexed": true,
          "internalType": "address",
          "name": "_to",
          "type": "address"
        },
        {
          "indexed": false,
          "internalType": "uint256",
          "name": "_tokenId",
          "type": "uint256"
        }
      ],
      "name": "Transfer",
      "type": "event"
    },
    {
      "inputs": [
        {
          "internalType": "address",
          "name": "_approved",
          "type": "address"
        },
        {
          "internalType": "uint256",
          "name": "_tokenId",
          "type": "uint256"
        }
      ],
      "name": "approve",
      "outputs": [],
      "stateMutability": "payable",
      "type": "function"
    },
    {
      "inputs": [
        {
          "internalType": "address",
          "name": "_owner",
          "type": "address"
        }
      ],
      "name": "balanceOf",
      "outputs": [
        {
          "internalType": "uint256",
          "name": "",
          "type": "uint256"
        }
      ],
      "stateMutability": "view",
      "type": "function"
    },
    {
      "inputs": [],
      "name": "ceoAddress",
      "outputs": [
        {
          "internalType": "address",
          "name": "",
          "type": "address"
        }
      ],
      "stateMutability": "view",
      "type": "function"
    },
    {
      "inputs": [],
      "name": "cfoAddress",
      "outputs": [
        {
          "internalType": "address payable",
          "name": "",
          "type": "address"
        }
      ],
      "stateMutability": "view",
      "type": "function"
    },
    {
      "inputs": [],
      "name": "cooAddress",
      "outputs": [
        {
          "internalType": "address",
          "name": "",
          "type": "address"
        }
      ],
      "stateMutability": "view",
      "type": "function"
    },
    {
      "inputs": [
        {
          "internalType": "uint256",
          "name": "_tokenId",
          "type": "uint256"
        },
        {
          "internalType": "uint256",
          "name": "_newQuality",
          "type": "uint256"
        }
      ],
      "name": "evolveHero",
      "outputs": [],
      "stateMutability": "nonpayable",
      "type": "function"
    },
    {
      "inputs": [],
      "name": "geneManager",
      "outputs": [
        {
          "internalType": "contract HeroGeneManager",
          "name": "",
          "type": "address"
        }
      ],
      "stateMutability": "view",
      "type": "function"
    },
    {
      "inputs": [
        {
          "internalType": "uint256",
          "name": "_tokenId",
          "type": "uint256"
        }
      ],
      "name": "getApproved",
      "outputs": [
        {
          "internalType": "address",
          "name": "",
          "type": "address"
        }
      ],
      "stateMutability": "view",
      "type": "function"
    },
    {
      "inputs": [
        {
          "internalType": "uint256",
          "name": "_tokenId",
          "type": "uint256"
        }
      ],
      "name": "getHero",
      "outputs": [
        {
          "internalType": "uint256",
          "name": "",
          "type": "uint256"
        },
        {
          "internalType": "uint256",
          "name": "",
          "type": "uint256"
        }
      ],
      "stateMutability": "view",
      "type": "function"
    },
    {
      "inputs": [
        {
          "internalType": "address",
          "name": "_owner",
          "type": "address"
        },
        {
          "internalType": "address",
          "name": "_operator",
          "type": "address"
        }
      ],
      "name": "isApprovedForAll",
      "outputs": [
        {
          "internalType": "bool",
          "name": "",
          "type": "bool"
        }
      ],
      "stateMutability": "view",
      "type": "function"
    },
    {
      "inputs": [],
      "name": "marketplaceManager",
      "outputs": [
        {
          "internalType": "contract HeroMarketplaceManager",
          "name": "",
          "type": "address"
        }
      ],
      "stateMutability": "view",
      "type": "function"
    },
    {
      "inputs": [],
      "name": "name",
      "outputs": [
        {
          "internalType": "string",
          "name": "",
          "type": "string"
        }
      ],
      "stateMutability": "pure",
      "type": "function"
    },
    {
      "inputs": [
        {
          "internalType": "uint256",
          "name": "_tokenId",
          "type": "uint256"
        }
      ],
      "name": "ownerOf",
      "outputs": [
        {
          "internalType": "address",
          "name": "",
          "type": "address"
        }
      ],
      "stateMutability": "view",
      "type": "function"
    },
    {
      "inputs": [],
      "name": "pause",
      "outputs": [],
      "stateMutability": "nonpayable",
      "type": "function"
    },
    {
      "inputs": [],
      "name": "paused",
      "outputs": [
        {
          "internalType": "bool",
          "name": "",
          "type": "bool"
        }
      ],
      "stateMutability": "view",
      "type": "function"
    },
    {
      "inputs": [
        {
          "internalType": "uint256",
          "name": "_tokenId",
          "type": "uint256"
        },
        {
          "internalType": "uint256",
          "name": "_quality",
          "type": "uint256"
        }
      ],
      "name": "rebirthHero",
      "outputs": [],
      "stateMutability": "nonpayable",
      "type": "function"
    },
    {
      "inputs": [
        {
          "internalType": "uint256",
          "name": "_tokenId",
          "type": "uint256"
        },
        {
          "internalType": "bool",
          "name": "_rip",
          "type": "bool"
        }
      ],
      "name": "retireHero",
      "outputs": [],
      "stateMutability": "nonpayable",
      "type": "function"
    },
    {
      "inputs": [],
      "name": "retirementManager",
      "outputs": [
        {
          "internalType": "contract HeroRetirementManager",
          "name": "",
          "type": "address"
        }
      ],
      "stateMutability": "view",
      "type": "function"
    },
    {
      "inputs": [
        {
          "internalType": "address",
          "name": "_from",
          "type": "address"
        },
        {
          "internalType": "address",
          "name": "_to",
          "type": "address"
        },
        {
          "internalType": "uint256",
          "name": "_tokenId",
          "type": "uint256"
        }
      ],
      "name": "safeTransferFrom",
      "outputs": [],
      "stateMutability": "payable",
      "type": "function"
    },
    {
      "inputs": [
        {
          "internalType": "address",
          "name": "_from",
          "type": "address"
        },
        {
          "internalType": "address",
          "name": "_to",
          "type": "address"
        },
        {
          "internalType": "uint256",
          "name": "_tokenId",
          "type": "uint256"
        },
        {
          "internalType": "bytes",
          "name": "_data",
          "type": "bytes"
        }
      ],
      "name": "safeTransferFrom",
      "outputs": [],
      "stateMutability": "payable",
      "type": "function"
    },
    {
      "inputs": [
        {
          "internalType": "address",
          "name": "_operator",
          "type": "address"
        },
        {
          "internalType": "bool",
          "name": "_approved",
          "type": "bool"
        }
      ],
      "name": "setApprovalForAll",
      "outputs": [],
      "stateMutability": "nonpayable",
      "type": "function"
    },
    {
      "inputs": [
        {
          "internalType": "address",
          "name": "_byeSayer",
          "type": "address"
        },
        {
          "internalType": "bool",
          "name": "_whitelisted",
          "type": "bool"
        }
      ],
      "name": "setByeSayer",
      "outputs": [],
      "stateMutability": "nonpayable",
      "type": "function"
    },
    {
      "inputs": [
        {
          "internalType": "address",
          "name": "_newCEO",
          "type": "address"
        }
      ],
      "name": "setCEO",
      "outputs": [],
      "stateMutability": "nonpayable",
      "type": "function"
    },
    {
      "inputs": [
        {
          "internalType": "address payable",
          "name": "_newCFO",
          "type": "address"
        }
      ],
      "name": "setCFO",
      "outputs": [],
      "stateMutability": "nonpayable",
      "type": "function"
    },
    {
      "inputs": [
        {
          "internalType": "address",
          "name": "_newCOO",
          "type": "address"
        }
      ],
      "name": "setCOO",
      "outputs": [],
      "stateMutability": "nonpayable",
      "type": "function"
    },
    {
      "inputs": [
        {
          "internalType": "address",
          "name": "_manager",
          "type": "address"
        }
      ],
      "name": "setGeneManager",
      "outputs": [],
      "stateMutability": "nonpayable",
      "type": "function"
    },
    {
      "inputs": [
        {
          "internalType": "address",
          "name": "_geneScientist",
          "type": "address"
        },
        {
          "internalType": "bool",
          "name": "_whitelisted",
          "type": "bool"
        }
      ],
      "name": "setGeneScientist",
      "outputs": [],
      "stateMutability": "nonpayable",
      "type": "function"
    },
    {
      "inputs": [
        {
          "internalType": "address",
          "name": "_marketplace",
          "type": "address"
        },
        {
          "internalType": "bool",
          "name": "_whitelisted",
          "type": "bool"
        }
      ],
      "name": "setMarketplace",
      "outputs": [],
      "stateMutability": "nonpayable",
      "type": "function"
    },
    {
      "inputs": [
        {
          "internalType": "address",
          "name": "_manager",
          "type": "address"
        }
      ],
      "name": "setMarketplaceManager",
      "outputs": [],
      "stateMutability": "nonpayable",
      "type": "function"
    },
    {
      "inputs": [
        {
          "internalType": "address",
          "name": "_manager",
          "type": "address"
        }
      ],
      "name": "setRetirementManager",
      "outputs": [],
      "stateMutability": "nonpayable",
      "type": "function"
    },
    {
      "inputs": [
        {
          "internalType": "address",
          "name": "_spawner",
          "type": "address"
        },
        {
          "internalType": "bool",
          "name": "_whitelisted",
          "type": "bool"
        }
      ],
      "name": "setSpawner",
      "outputs": [],
      "stateMutability": "nonpayable",
      "type": "function"
    },
    {
      "inputs": [
        {
          "internalType": "address",
          "name": "_manager",
          "type": "address"
        }
      ],
      "name": "setSpawningManager",
      "outputs": [],
      "stateMutability": "nonpayable",
      "type": "function"
    },
    {
      "inputs": [
        {
          "internalType": "string",
          "name": "_prefix",
          "type": "string"
        },
        {
          "internalType": "string",
          "name": "_suffix",
          "type": "string"
        }
      ],
      "name": "setTokenURIAffixes",
      "outputs": [],
      "stateMutability": "nonpayable",
      "type": "function"
    },
    {
      "inputs": [
        {
          "internalType": "address",
          "name": "_newSetter",
          "type": "address"
        }
      ],
      "name": "setWhitelistSetter",
      "outputs": [],
      "stateMutability": "nonpayable",
      "type": "function"
    },
    {
      "inputs": [
        {
          "internalType": "uint256",
          "name": "_quality",
          "type": "uint256"
        },
        {
          "internalType": "address",
          "name": "_owner",
          "type": "address"
        }
      ],
      "name": "spawnHero",
      "outputs": [
        {
          "internalType": "uint256",
          "name": "",
          "type": "uint256"
        }
      ],
      "stateMutability": "nonpayable",
      "type": "function"
    },
    {
      "inputs": [],
      "name": "spawningManager",
      "outputs": [
        {
          "internalType": "contract HeroSpawningManager",
          "name": "",
          "type": "address"
        }
      ],
      "stateMutability": "view",
      "type": "function"
    },
    {
      "inputs": [
        {
          "internalType": "bytes4",
          "name": "interfaceID",
          "type": "bytes4"
        }
      ],
      "name": "supportsInterface",
      "outputs": [
        {
          "internalType": "bool",
          "name": "",
          "type": "bool"
        }
      ],
      "stateMutability": "view",
      "type": "function"
    },
    {
      "inputs": [],
      "name": "symbol",
      "outputs": [
        {
          "internalType": "string",
          "name": "",
          "type": "string"
        }
      ],
      "stateMutability": "pure",
      "type": "function"
    },
    {
      "inputs": [
        {
          "internalType": "uint256",
          "name": "_index",
          "type": "uint256"
        }
      ],
      "name": "tokenByIndex",
      "outputs": [
        {
          "internalType": "uint256",
          "name": "",
          "type": "uint256"
        }
      ],
      "stateMutability": "view",
      "type": "function"
    },
    {
      "inputs": [
        {
          "internalType": "address",
          "name": "_owner",
          "type": "address"
        }
      ],
      "name": "tokenOf",
      "outputs": [
        {
          "internalType": "uint256[]",
          "name": "",
          "type": "uint256[]"
        }
      ],
      "stateMutability": "view",
      "type": "function"
    },
    {
      "inputs": [
        {
          "internalType": "address",
          "name": "_owner",
          "type": "address"
        },
        {
          "internalType": "uint256",
          "name": "_index",
          "type": "uint256"
        }
      ],
      "name": "tokenOfOwnerByIndex",
      "outputs": [
        {
          "internalType": "uint256",
          "name": "_tokenId",
          "type": "uint256"
        }
      ],
      "stateMutability": "view",
      "type": "function"
    },
    {
      "inputs": [
        {
          "internalType": "uint256",
          "name": "_tokenId",
          "type": "uint256"
        }
      ],
      "name": "tokenURI",
      "outputs": [
        {
          "internalType": "string",
          "name": "",
          "type": "string"
        }
      ],
      "stateMutability": "view",
      "type": "function"
    },
    {
      "inputs": [],
      "name": "tokenURIPrefix",
      "outputs": [
        {
          "internalType": "string",
          "name": "",
          "type": "string"
        }
      ],
      "stateMutability": "view",
      "type": "function"
    },
    {
      "inputs": [],
      "name": "tokenURISuffix",
      "outputs": [
        {
          "internalType": "string",
          "name": "",
          "type": "string"
        }
      ],
      "stateMutability": "view",
      "type": "function"
    },
    {
      "inputs": [],
      "name": "totalSupply",
      "outputs": [
        {
          "internalType": "uint256",
          "name": "",
          "type": "uint256"
        }
      ],
      "stateMutability": "view",
      "type": "function"
    },
    {
      "inputs": [
        {
          "internalType": "address",
          "name": "_from",
          "type": "address"
        },
        {
          "internalType": "address",
          "name": "_to",
          "type": "address"
        },
        {
          "internalType": "uint256",
          "name": "_tokenId",
          "type": "uint256"
        }
      ],
      "name": "transferFrom",
      "outputs": [],
      "stateMutability": "payable",
      "type": "function"
    },
    {
      "inputs": [],
      "name": "unpause",
      "outputs": [],
      "stateMutability": "nonpayable",
      "type": "function"
    },
    {
      "inputs": [],
      "name": "whitelistSetterAddress",
      "outputs": [
        {
          "internalType": "address",
          "name": "",
          "type": "address"
        }
      ],
      "stateMutability": "view",
      "type": "function"
    },
    {
      "inputs": [
        {
          "internalType": "address",
          "name": "",
          "type": "address"
        }
      ],
      "name": "whitelistedByeSayer",
      "outputs": [
        {
          "internalType": "bool",
          "name": "",
          "type": "bool"
        }
      ],
      "stateMutability": "view",
      "type": "function"
    },
    {
      "inputs": [
        {
          "internalType": "address",
          "name": "",
          "type": "address"
        }
      ],
      "name": "whitelistedGeneScientist",
      "outputs": [
        {
          "internalType": "bool",
          "name": "",
          "type": "bool"
        }
      ],
      "stateMutability": "view",
      "type": "function"
    },
    {
      "inputs": [
        {
          "internalType": "address",
          "name": "",
          "type": "address"
        }
      ],
      "name": "whitelistedMarketplace",
      "outputs": [
        {
          "internalType": "bool",
          "name": "",
          "type": "bool"
        }
      ],
      "stateMutability": "view",
      "type": "function"
    },
    {
      "inputs": [
        {
          "internalType": "address",
          "name": "",
          "type": "address"
        }
      ],
      "name": "whitelistedSpawner",
      "outputs": [
        {
          "internalType": "bool",
          "name": "",
          "type": "bool"
        }
      ],
      "stateMutability": "view",
      "type": "function"
    },
    {
      "inputs": [],
      "name": "withdrawBalance",
      "outputs": [],
      "stateMutability": "nonpayable",
      "type": "function"
    }
  ],
  "bytecode": "0x60806040526000600c60146101000a81548160ff02191690831515021790555060405180606001604052806027815260200162005f9d602791396015908051906020019062000050929190620007ff565b506040518060400160405280600581526020017f2e6a736f6e000000000000000000000000000000000000000000000000000000815250601690805190602001906200009e929190620007ff565b50348015620000ac57600080fd5b5060016000806301ffc9a760e01b7bffffffffffffffffffffffffffffffffffffffffffffffffffffffff1916815260200190815260200160002060006101000a81548160ff02191690831515021790555033600160006101000a81548173ffffffffffffffffffffffffffffffffffffffff021916908373ffffffffffffffffffffffffffffffffffffffff16021790555033600a60006101000a81548173ffffffffffffffffffffffffffffffffffffffff021916908373ffffffffffffffffffffffffffffffffffffffff16021790555060016000806380ac58cd60e01b7bffffffffffffffffffffffffffffffffffffffffffffffffffffffff1916815260200190815260200160002060006101000a81548160ff021916908315150217905550600160008063780e9d6360e01b7bffffffffffffffffffffffffffffffffffffffffffffffffffffffff1916815260200190815260200160002060006101000a81548160ff0219169083151502179055506001600080635b5e139f60e01b7bffffffffffffffffffffffffffffffffffffffffffffffffffffffff1916815260200190815260200160002060006101000a81548160ff02191690831515021790555060176040518060c0016040528060008152602001428152602001600a8152602001600a8152602001600a81526020016040518060400160405280600481526020017f74657374000000000000000000000000000000000000000000000000000000008152508152509080600181540180825580915050600190039060005260206000209060060201600090919091909150600082015181600001556020820151816001015560408201518160020155606082015181600301556080820151816004015560a082015181600501908051906020019062000354929190620007ff565b5050506200036a600033620003ad60201b60201c565b506200037e600033620003ad60201b60201c565b5062000392600033620003ad60201b60201c565b50620003a6600033620003ad60201b60201c565b5062000a13565b6000806040518060c00160405280858152602001428152602001600a8152602001600a8152602001600a81526020016040518060400160405280600481526020017f746573740000000000000000000000000000000000000000000000000000000081525081525090506017819080600181540180825580915050600190039060005260206000209060060201600090919091909150600082015181600001556020820151816001015560408201518160020155606082015181600301556080820151816004015560a082015181600501908051906020019062000493929190620007ff565b5050506001601780549050620004aa91906200093a565b9150620004be83836200051660201b60201c565b8273ffffffffffffffffffffffffffffffffffffffff16827f0ae5a7603f377028e42c5beae3d426a4727ca0fe39c87094faf07214a717fa2686604051620005079190620008c0565b60405180910390a35092915050565b600073ffffffffffffffffffffffffffffffffffffffff166010600083815260200190815260200160002060009054906101000a900473ffffffffffffffffffffffffffffffffffffffff1673ffffffffffffffffffffffffffffffffffffffff16146200058357600080fd5b6200059582826200065860201b60201c565b80600e6000600d54815260200190815260200160002081905550600d54600f600083815260200190815260200160002081905550620005e66001600d54620007af60201b620035871790919060201c565b600d819055508173ffffffffffffffffffffffffffffffffffffffff16600073ffffffffffffffffffffffffffffffffffffffff167fddf252ad1be2c89b69c2b068fc378daa952ba7f163c4a11628f55a4df523b3ef836040516200064c9190620008c0565b60405180910390a35050565b600073ffffffffffffffffffffffffffffffffffffffff168273ffffffffffffffffffffffffffffffffffffffff1614156200069357600080fd5b816010600083815260200190815260200160002060006101000a81548173ffffffffffffffffffffffffffffffffffffffff021916908373ffffffffffffffffffffffffffffffffffffffff1602179055506000601360008473ffffffffffffffffffffffffffffffffffffffff1673ffffffffffffffffffffffffffffffffffffffff168152602001908152602001600020805490509050601360008473ffffffffffffffffffffffffffffffffffffffff1673ffffffffffffffffffffffffffffffffffffffff168152602001908152602001600020829080600181540180825580915050600190039060005260206000200160009091909190915055806014600084815260200190815260200160002081905550505050565b60008183620007bf9190620008dd565b905082811015620007f9577f4e487b7100000000000000000000000000000000000000000000000000000000600052600160045260246000fd5b92915050565b8280546200080d906200097f565b90600052602060002090601f0160209004810192826200083157600085556200087d565b82601f106200084c57805160ff19168380011785556200087d565b828001600101855582156200087d579182015b828111156200087c5782518255916020019190600101906200085f565b5b5090506200088c919062000890565b5090565b5b80821115620008ab57600081600090555060010162000891565b5090565b620008ba8162000975565b82525050565b6000602082019050620008d76000830184620008af565b92915050565b6000620008ea8262000975565b9150620008f78362000975565b9250827fffffffffffffffffffffffffffffffffffffffffffffffffffffffffffffffff038211156200092f576200092e620009b5565b5b828201905092915050565b6000620009478262000975565b9150620009548362000975565b9250828210156200096a5762000969620009b5565b5b828203905092915050565b6000819050919050565b600060028204905060018216806200099857607f821691505b60208210811415620009af57620009ae620009e4565b5b50919050565b7f4e487b7100000000000000000000000000000000000000000000000000000000600052601160045260246000fd5b7f4e487b7100000000000000000000000000000000000000000000000000000000600052602260045260246000fd5b61557a8062000a236000396000f3fe60806040526004361061031a5760003560e01c80635fd8c710116101ab57806399165bf4116100f7578063c84c9e4511610095578063dbbc853b1161006f578063dbbc853b14610bc1578063e985e9c514610bec578063efc316b314610c29578063faf4212514610c525761031a565b8063c84c9e4514610b0a578063c87b56dd14610b47578063d06675f614610b845761031a565b8063a306dfbe116100d1578063a306dfbe14610a5b578063b047fb5014610a98578063b88d4fde14610ac3578063c0ac998314610adf5761031a565b806399165bf4146109cc5780639f186edb14610a09578063a22cb46514610a325761031a565b806381b2dad911610164578063927aaa7c1161013e578063927aaa7c1461091057806395d89b41146109395780639848146a1461096457806398f5ee5d146109a15761031a565b806381b2dad9146108a75780638456cb59146108d05780638c37e31e146108e75761031a565b80635fd8c710146107995780636352211e146107b05780636571e0a3146107ed57806370a08231146108165780637419e77a1461085357806380173a191461087c5761031a565b806327d7874c1161026a57806342ec38e2116102235780634f6ccce7116101fd5780634f6ccce7146106dd57806352ac882c1461071a578063547a5eee146107455780635c975abb1461076e5761031a565b806342ec38e21461064e578063460827581461068b5780634e0a3379146106b45761031a565b806327d7874c146105635780632ba73c151461058c5780632f745c59146105b55780632ffb054e146105f25780633f4ba83a1461061b57806342842e0e146106325761031a565b80631412409a116102d75780631a68b1a1116102b15780631a68b1a1146104b75780631f8df2cd146104e057806321d801111461050957806323b872dd146105475761031a565b80631412409a1461043657806318160ddd146104615780631889500c1461048c5761031a565b806301ffc9a71461031f5780630519ce791461035c57806306fdde0314610387578063081812fc146103b2578063095ea7b3146103ef5780630a0f81681461040b575b600080fd5b34801561032b57600080fd5b5061034660048036038101906103419190614bc9565b610c7b565b6040516103539190614fa9565b60405180910390f35b34801561036857600080fd5b50610371610ce2565b60405161037e9190614ef7565b60405180910390f35b34801561039357600080fd5b5061039c610d08565b6040516103a99190615030565b60405180910390f35b3480156103be57600080fd5b506103d960048036038101906103d49190614c90565b610d45565b6040516103e69190614edc565b60405180910390f35b61040960048036038101906104049190614b64565b610df1565b005b34801561041757600080fd5b50610420611039565b60405161042d9190614edc565b60405180910390f35b34801561044257600080fd5b5061044b61105f565b6040516104589190614edc565b60405180910390f35b34801561046d57600080fd5b50610476611085565b6040516104839190615052565b60405180910390f35b34801561049857600080fd5b506104a161108f565b6040516104ae9190614fdf565b60405180910390f35b3480156104c357600080fd5b506104de60048036038101906104d991906149cb565b6110b5565b005b3480156104ec57600080fd5b5061050760048036038101906105029190614b28565b611153565b005b34801561051557600080fd5b50610530600480360381019061052b9190614c90565b611265565b60405161053e9291906150bf565b60405180910390f35b610561600480360381019061055c9190614a59565b611337565b005b34801561056f57600080fd5b5061058a600480360381019061058591906149cb565b611359565b005b34801561059857600080fd5b506105b360048036038101906105ae91906149cb565b611431565b005b3480156105c157600080fd5b506105dc60048036038101906105d79190614b64565b6114cf565b6040516105e99190615052565b60405180910390f35b3480156105fe57600080fd5b50610619600480360381019061061491906149cb565b6115e2565b005b34801561062757600080fd5b50610630611680565b005b61064c60048036038101906106479190614a59565b611710565b005b34801561065a57600080fd5b50610675600480360381019061067091906149cb565b611732565b6040516106829190614f87565b60405180910390f35b34801561069757600080fd5b506106b260048036038101906106ad9190614cf5565b611803565b005b3480156106c057600080fd5b506106db60048036038101906106d691906149f4565b611b5c565b005b3480156106e957600080fd5b5061070460048036038101906106ff9190614c90565b611bfa565b6040516107119190615052565b60405180910390f35b34801561072657600080fd5b5061072f611c25565b60405161073c9190614ffa565b60405180910390f35b34801561075157600080fd5b5061076c600480360381019061076791906149cb565b611c4b565b005b34801561077a57600080fd5b50610783611ce9565b6040516107909190614fa9565b60405180910390f35b3480156107a557600080fd5b506107ae611cfc565b005b3480156107bc57600080fd5b506107d760048036038101906107d29190614c90565b611dc1565b6040516107e49190614edc565b60405180910390f35b3480156107f957600080fd5b50610814600480360381019061080f9190614d31565b611e6d565b005b34801561082257600080fd5b5061083d600480360381019061083891906149cb565b612126565b60405161084a9190615052565b60405180910390f35b34801561085f57600080fd5b5061087a60048036038101906108759190614b28565b6121ab565b005b34801561088857600080fd5b506108916122bd565b60405161089e9190614fc4565b60405180910390f35b3480156108b357600080fd5b506108ce60048036038101906108c99190614b28565b6122e3565b005b3480156108dc57600080fd5b506108e56123f5565b005b3480156108f357600080fd5b5061090e600480360381019061090991906149cb565b612536565b005b34801561091c57600080fd5b50610937600480360381019061093291906149cb565b6125d4565b005b34801561094557600080fd5b5061094e612672565b60405161095b9190615030565b60405180910390f35b34801561097057600080fd5b5061098b600480360381019061098691906149cb565b6126af565b6040516109989190614fa9565b60405180910390f35b3480156109ad57600080fd5b506109b66126cf565b6040516109c39190615015565b60405180910390f35b3480156109d857600080fd5b506109f360048036038101906109ee91906149cb565b6126f5565b604051610a009190614fa9565b60405180910390f35b348015610a1557600080fd5b50610a306004803603810190610a2b9190614b28565b612715565b005b348015610a3e57600080fd5b50610a596004803603810190610a549190614b28565b612827565b005b348015610a6757600080fd5b50610a826004803603810190610a7d91906149cb565b6129d8565b604051610a8f9190614fa9565b60405180910390f35b348015610aa457600080fd5b50610aad6129f8565b604051610aba9190614edc565b60405180910390f35b610add6004803603810190610ad89190614aa8565b612a1e565b005b348015610aeb57600080fd5b50610af4612a77565b604051610b019190615030565b60405180910390f35b348015610b1657600080fd5b50610b316004803603810190610b2c91906149cb565b612b05565b604051610b3e9190614fa9565b60405180910390f35b348015610b5357600080fd5b50610b6e6004803603810190610b699190614c90565b612b25565b604051610b7b9190615030565b60405180910390f35b348015610b9057600080fd5b50610bab6004803603810190610ba69190614cb9565b612fed565b604051610bb89190615052565b60405180910390f35b348015610bcd57600080fd5b50610bd661316c565b604051610be39190615030565b60405180910390f35b348015610bf857600080fd5b50610c136004803603810190610c0e9190614a1d565b6131fa565b604051610c209190614fa9565b60405180910390f35b348015610c3557600080fd5b50610c506004803603810190610c4b9190614d31565b61328e565b005b348015610c5e57600080fd5b50610c796004803603810190610c749190614c1b565b613503565b005b6000806000837bffffffffffffffffffffffffffffffffffffffffffffffffffffffff19167bffffffffffffffffffffffffffffffffffffffffffffffffffffffff1916815260200190815260200160002060009054906101000a900460ff169050919050565b600b60009054906101000a900473ffffffffffffffffffffffffffffffffffffffff1681565b60606040518060400160405280600881526020017f4e54465f4845524f000000000000000000000000000000000000000000000000815250905090565b600081600073ffffffffffffffffffffffffffffffffffffffff166010600083815260200190815260200160002060009054906101000a900473ffffffffffffffffffffffffffffffffffffffff1673ffffffffffffffffffffffffffffffffffffffff161415610db557600080fd5b6012600084815260200190815260200160002060009054906101000a900473ffffffffffffffffffffffffffffffffffffffff16915050919050565b80600073ffffffffffffffffffffffffffffffffffffffff166010600083815260200190815260200160002060009054906101000a900473ffffffffffffffffffffffffffffffffffffffff1673ffffffffffffffffffffffffffffffffffffffff161415610e5f57600080fd5b81610e6a33826135d4565b80610e7b5750610e7a3382613640565b5b610e8457600080fd5b600c60149054906101000a900460ff1615610e9e57600080fd5b60006010600085815260200190815260200160002060009054906101000a900473ffffffffffffffffffffffffffffffffffffffff1690508473ffffffffffffffffffffffffffffffffffffffff168173ffffffffffffffffffffffffffffffffffffffff161415610f0f57600080fd5b8473ffffffffffffffffffffffffffffffffffffffff166012600086815260200190815260200160002060009054906101000a900473ffffffffffffffffffffffffffffffffffffffff1673ffffffffffffffffffffffffffffffffffffffff161415610f7b57600080fd5b846012600086815260200190815260200160002060006101000a81548173ffffffffffffffffffffffffffffffffffffffff021916908373ffffffffffffffffffffffffffffffffffffffff1602179055508473ffffffffffffffffffffffffffffffffffffffff168173ffffffffffffffffffffffffffffffffffffffff167f8c5be1e5ebec7d5bd14f71427d1e84f3dd0314c0f7b2291e5b200ac8c7c3b9258660405161102a9190615052565b60405180910390a35050505050565b600a60009054906101000a900473ffffffffffffffffffffffffffffffffffffffff1681565b600160009054906101000a900473ffffffffffffffffffffffffffffffffffffffff1681565b6000600d54905090565b600460009054906101000a900473ffffffffffffffffffffffffffffffffffffffff1681565b600160009054906101000a900473ffffffffffffffffffffffffffffffffffffffff1673ffffffffffffffffffffffffffffffffffffffff163373ffffffffffffffffffffffffffffffffffffffff161461110f57600080fd5b80600360006101000a81548173ffffffffffffffffffffffffffffffffffffffff021916908373ffffffffffffffffffffffffffffffffffffffff16021790555050565b600160009054906101000a900473ffffffffffffffffffffffffffffffffffffffff1673ffffffffffffffffffffffffffffffffffffffff163373ffffffffffffffffffffffffffffffffffffffff16146111ad57600080fd5b801515600960008473ffffffffffffffffffffffffffffffffffffffff1673ffffffffffffffffffffffffffffffffffffffff16815260200190815260200160002060009054906101000a900460ff161515141561120a57600080fd5b80600960008473ffffffffffffffffffffffffffffffffffffffff1673ffffffffffffffffffffffffffffffffffffffff16815260200190815260200160002060006101000a81548160ff0219169083151502179055505050565b60008082600073ffffffffffffffffffffffffffffffffffffffff166010600083815260200190815260200160002060009054906101000a900473ffffffffffffffffffffffffffffffffffffffff1673ffffffffffffffffffffffffffffffffffffffff1614156112d657600080fd5b600060178581548110611312577f4e487b7100000000000000000000000000000000000000000000000000000000600052603260045260246000fd5b9060005260206000209060060201905080600001548160010154935093505050915091565b61135483838360405180602001604052806000815250600061375b565b505050565b600a60009054906101000a900473ffffffffffffffffffffffffffffffffffffffff1673ffffffffffffffffffffffffffffffffffffffff163373ffffffffffffffffffffffffffffffffffffffff16146113b357600080fd5b600073ffffffffffffffffffffffffffffffffffffffff168173ffffffffffffffffffffffffffffffffffffffff1614156113ed57600080fd5b80600a60006101000a81548173ffffffffffffffffffffffffffffffffffffffff021916908373ffffffffffffffffffffffffffffffffffffffff16021790555050565b600a60009054906101000a900473ffffffffffffffffffffffffffffffffffffffff1673ffffffffffffffffffffffffffffffffffffffff163373ffffffffffffffffffffffffffffffffffffffff161461148b57600080fd5b80600c60006101000a81548173ffffffffffffffffffffffffffffffffffffffff021916908373ffffffffffffffffffffffffffffffffffffffff16021790555050565b60008073ffffffffffffffffffffffffffffffffffffffff168373ffffffffffffffffffffffffffffffffffffffff16141561150a57600080fd5b601360008473ffffffffffffffffffffffffffffffffffffffff1673ffffffffffffffffffffffffffffffffffffffff16815260200190815260200160002080549050821061155857600080fd5b601360008473ffffffffffffffffffffffffffffffffffffffff1673ffffffffffffffffffffffffffffffffffffffff16815260200190815260200160002082815481106115cf577f4e487b7100000000000000000000000000000000000000000000000000000000600052603260045260246000fd5b9060005260206000200154905092915050565b600160009054906101000a900473ffffffffffffffffffffffffffffffffffffffff1673ffffffffffffffffffffffffffffffffffffffff163373ffffffffffffffffffffffffffffffffffffffff161461163c57600080fd5b80600460006101000a81548173ffffffffffffffffffffffffffffffffffffffff021916908373ffffffffffffffffffffffffffffffffffffffff16021790555050565b600a60009054906101000a900473ffffffffffffffffffffffffffffffffffffffff1673ffffffffffffffffffffffffffffffffffffffff163373ffffffffffffffffffffffffffffffffffffffff16146116da57600080fd5b600c60149054906101000a900460ff166116f357600080fd5b6000600c60146101000a81548160ff021916908315150217905550565b61172d83838360405180602001604052806000815250600161375b565b505050565b6060600073ffffffffffffffffffffffffffffffffffffffff168273ffffffffffffffffffffffffffffffffffffffff16141561176e57600080fd5b601360008373ffffffffffffffffffffffffffffffffffffffff1673ffffffffffffffffffffffffffffffffffffffff1681526020019081526020016000208054806020026020016040519081016040528092919081815260200182805480156117f757602002820191906000526020600020905b8154815260200190600101908083116117e3575b50505050509050919050565b600760003373ffffffffffffffffffffffffffffffffffffffff1673ffffffffffffffffffffffffffffffffffffffff16815260200190815260200160002060009054906101000a900460ff1661185957600080fd5b8181600073ffffffffffffffffffffffffffffffffffffffff16600360009054906101000a900473ffffffffffffffffffffffffffffffffffffffff1673ffffffffffffffffffffffffffffffffffffffff1614806119635750600360009054906101000a900473ffffffffffffffffffffffffffffffffffffffff1673ffffffffffffffffffffffffffffffffffffffff166318dcdfbe83836040518363ffffffff1660e01b8152600401611910929190615096565b602060405180830381600087803b15801561192a57600080fd5b505af115801561193e573d6000803e3d6000fd5b505050506040513d601f19601f820116820180604052508101906119629190614ba0565b5b61196c57600080fd5b61197584613b64565b8215611b295760008490505b600160178054905061199391906151e0565b811015611a9e5760176001826119a99190615159565b815481106119e0577f4e487b7100000000000000000000000000000000000000000000000000000000600052603260045260246000fd5b906000526020600020906006020160178281548110611a28577f4e487b7100000000000000000000000000000000000000000000000000000000600052603260045260246000fd5b906000526020600020906006020160008201548160000155600182015481600101556002820154816002015560038201548160030155600482015481600401556005820181600501908054611a7c90615387565b611a8792919061468d565b509050508080611a96906153b9565b915050611981565b506017805480611ad7577f4e487b7100000000000000000000000000000000000000000000000000000000600052603160045260246000fd5b60019003818190600052602060002090600602016000808201600090556001820160009055600282016000905560038201600090556004820160009055600582016000611b24919061471a565b505090555b837f1d8d856a36c244a023471a6cdddffe876140884edaab3417d5ad65f3abcb786360405160405180910390a250505050565b600a60009054906101000a900473ffffffffffffffffffffffffffffffffffffffff1673ffffffffffffffffffffffffffffffffffffffff163373ffffffffffffffffffffffffffffffffffffffff1614611bb657600080fd5b80600b60006101000a81548173ffffffffffffffffffffffffffffffffffffffff021916908373ffffffffffffffffffffffffffffffffffffffff16021790555050565b6000600d548210611c0a57600080fd5b600e6000838152602001908152602001600020549050919050565b600360009054906101000a900473ffffffffffffffffffffffffffffffffffffffff1681565b600160009054906101000a900473ffffffffffffffffffffffffffffffffffffffff1673ffffffffffffffffffffffffffffffffffffffff163373ffffffffffffffffffffffffffffffffffffffff1614611ca557600080fd5b80600160006101000a81548173ffffffffffffffffffffffffffffffffffffffff021916908373ffffffffffffffffffffffffffffffffffffffff16021790555050565b600c60149054906101000a900460ff1681565b600b60009054906101000a900473ffffffffffffffffffffffffffffffffffffffff1673ffffffffffffffffffffffffffffffffffffffff163373ffffffffffffffffffffffffffffffffffffffff1614611d5657600080fd5b600b60009054906101000a900473ffffffffffffffffffffffffffffffffffffffff1673ffffffffffffffffffffffffffffffffffffffff166108fc479081150290604051600060405180830381858888f19350505050158015611dbe573d6000803e3d6000fd5b50565b600081600073ffffffffffffffffffffffffffffffffffffffff166010600083815260200190815260200160002060009054906101000a900473ffffffffffffffffffffffffffffffffffffffff1673ffffffffffffffffffffffffffffffffffffffff161415611e3157600080fd5b6010600084815260200190815260200160002060009054906101000a900473ffffffffffffffffffffffffffffffffffffffff16915050919050565b600960003373ffffffffffffffffffffffffffffffffffffffff1673ffffffffffffffffffffffffffffffffffffffff16815260200190815260200160002060009054906101000a900460ff16611ec357600080fd5b81600073ffffffffffffffffffffffffffffffffffffffff166010600083815260200190815260200160002060009054906101000a900473ffffffffffffffffffffffffffffffffffffffff1673ffffffffffffffffffffffffffffffffffffffff161415611f3157600080fd5b8282600073ffffffffffffffffffffffffffffffffffffffff16600560009054906101000a900473ffffffffffffffffffffffffffffffffffffffff1673ffffffffffffffffffffffffffffffffffffffff16148061203b5750600560009054906101000a900473ffffffffffffffffffffffffffffffffffffffff1673ffffffffffffffffffffffffffffffffffffffff16639613bc9083836040518363ffffffff1660e01b8152600401611fe89291906150bf565b602060405180830381600087803b15801561200257600080fd5b505af1158015612016573d6000803e3d6000fd5b505050506040513d601f19601f8201168201806040525081019061203a9190614ba0565b5b61204457600080fd5b600060178681548110612080577f4e487b7100000000000000000000000000000000000000000000000000000000600052603260045260246000fd5b906000526020600020906006020160000154905084601787815481106120cf577f4e487b7100000000000000000000000000000000000000000000000000000000600052603260045260246000fd5b906000526020600020906006020160000181905550857fc3b198f30154b7568ec19c5767ff8310a73b9eec1f90ba994f51c0ca37db13a982876040516121169291906150bf565b60405180910390a2505050505050565b60008073ffffffffffffffffffffffffffffffffffffffff168273ffffffffffffffffffffffffffffffffffffffff16141561216157600080fd5b601360008373ffffffffffffffffffffffffffffffffffffffff1673ffffffffffffffffffffffffffffffffffffffff168152602001908152602001600020805490509050919050565b600160009054906101000a900473ffffffffffffffffffffffffffffffffffffffff1673ffffffffffffffffffffffffffffffffffffffff163373ffffffffffffffffffffffffffffffffffffffff161461220557600080fd5b801515600860008473ffffffffffffffffffffffffffffffffffffffff1673ffffffffffffffffffffffffffffffffffffffff16815260200190815260200160002060009054906101000a900460ff161515141561226257600080fd5b80600860008473ffffffffffffffffffffffffffffffffffffffff1673ffffffffffffffffffffffffffffffffffffffff16815260200190815260200160002060006101000a81548160ff0219169083151502179055505050565b600560009054906101000a900473ffffffffffffffffffffffffffffffffffffffff1681565b600160009054906101000a900473ffffffffffffffffffffffffffffffffffffffff1673ffffffffffffffffffffffffffffffffffffffff163373ffffffffffffffffffffffffffffffffffffffff161461233d57600080fd5b801515600760008473ffffffffffffffffffffffffffffffffffffffff1673ffffffffffffffffffffffffffffffffffffffff16815260200190815260200160002060009054906101000a900460ff161515141561239a57600080fd5b80600760008473ffffffffffffffffffffffffffffffffffffffff1673ffffffffffffffffffffffffffffffffffffffff16815260200190815260200160002060006101000a81548160ff0219169083151502179055505050565b600a60009054906101000a900473ffffffffffffffffffffffffffffffffffffffff1673ffffffffffffffffffffffffffffffffffffffff163373ffffffffffffffffffffffffffffffffffffffff16148061249e5750600b60009054906101000a900473ffffffffffffffffffffffffffffffffffffffff1673ffffffffffffffffffffffffffffffffffffffff163373ffffffffffffffffffffffffffffffffffffffff16145b806124f65750600c60009054906101000a900473ffffffffffffffffffffffffffffffffffffffff1673ffffffffffffffffffffffffffffffffffffffff163373ffffffffffffffffffffffffffffffffffffffff16145b6124ff57600080fd5b600c60149054906101000a900460ff161561251957600080fd5b6001600c60146101000a81548160ff021916908315150217905550565b600160009054906101000a900473ffffffffffffffffffffffffffffffffffffffff1673ffffffffffffffffffffffffffffffffffffffff163373ffffffffffffffffffffffffffffffffffffffff161461259057600080fd5b80600260006101000a81548173ffffffffffffffffffffffffffffffffffffffff021916908373ffffffffffffffffffffffffffffffffffffffff16021790555050565b600160009054906101000a900473ffffffffffffffffffffffffffffffffffffffff1673ffffffffffffffffffffffffffffffffffffffff163373ffffffffffffffffffffffffffffffffffffffff161461262e57600080fd5b80600560006101000a81548173ffffffffffffffffffffffffffffffffffffffff021916908373ffffffffffffffffffffffffffffffffffffffff16021790555050565b60606040518060400160405280600481526020017f4845524f00000000000000000000000000000000000000000000000000000000815250905090565b60076020528060005260406000206000915054906101000a900460ff1681565b600260009054906101000a900473ffffffffffffffffffffffffffffffffffffffff1681565b60096020528060005260406000206000915054906101000a900460ff1681565b600160009054906101000a900473ffffffffffffffffffffffffffffffffffffffff1673ffffffffffffffffffffffffffffffffffffffff163373ffffffffffffffffffffffffffffffffffffffff161461276f57600080fd5b801515600660008473ffffffffffffffffffffffffffffffffffffffff1673ffffffffffffffffffffffffffffffffffffffff16815260200190815260200160002060009054906101000a900460ff16151514156127cc57600080fd5b80600660008473ffffffffffffffffffffffffffffffffffffffff1673ffffffffffffffffffffffffffffffffffffffff16815260200190815260200160002060006101000a81548160ff0219169083151502179055505050565b600c60149054906101000a900460ff161561284157600080fd5b801515601160003373ffffffffffffffffffffffffffffffffffffffff1673ffffffffffffffffffffffffffffffffffffffff16815260200190815260200160002060008473ffffffffffffffffffffffffffffffffffffffff1673ffffffffffffffffffffffffffffffffffffffff16815260200190815260200160002060009054906101000a900460ff16151514156128db57600080fd5b80601160003373ffffffffffffffffffffffffffffffffffffffff1673ffffffffffffffffffffffffffffffffffffffff16815260200190815260200160002060008473ffffffffffffffffffffffffffffffffffffffff1673ffffffffffffffffffffffffffffffffffffffff16815260200190815260200160002060006101000a81548160ff0219169083151502179055508173ffffffffffffffffffffffffffffffffffffffff163373ffffffffffffffffffffffffffffffffffffffff167f17307eab39ab6107e8899845ad3d59bd9653f200f220920489ca2b5937696c31836040516129cc9190614fa9565b60405180910390a35050565b60086020528060005260406000206000915054906101000a900460ff1681565b600c60009054906101000a900473ffffffffffffffffffffffffffffffffffffffff1681565b612a7085858585858080601f016020809104026020016040519081016040528093929190818152602001838380828437600081840152601f19601f82011690508083019250505050505050600161375b565b5050505050565b60158054612a8490615387565b80601f0160208091040260200160405190810160405280929190818152602001828054612ab090615387565b8015612afd5780601f10612ad257610100808354040283529160200191612afd565b820191906000526020600020905b815481529060010190602001808311612ae057829003601f168201915b505050505081565b60066020528060005260406000206000915054906101000a900460ff1681565b606081600073ffffffffffffffffffffffffffffffffffffffff166010600083815260200190815260200160002060009054906101000a900473ffffffffffffffffffffffffffffffffffffffff1673ffffffffffffffffffffffffffffffffffffffff161415612b9557600080fd5b600060158054612ba490615387565b80601f0160208091040260200160405190810160405280929190818152602001828054612bd090615387565b8015612c1d5780601f10612bf257610100808354040283529160200191612c1d565b820191906000526020600020905b815481529060010190602001808311612c0057829003601f168201915b50505050509050600060168054612c3390615387565b80601f0160208091040260200160405190810160405280929190818152602001828054612c5f90615387565b8015612cac5780601f10612c8157610100808354040283529160200191612cac565b820191906000526020600020905b815481529060010190602001808311612c8f57829003601f168201915b50505050509050600085905060005b8080612cc6906153b9565b915050600a82612cd691906151af565b915060008211612cbb5760006005828651612cf19190615159565b612cfb9190615159565b67ffffffffffffffff811115612d3a577f4e487b7100000000000000000000000000000000000000000000000000000000600052604160045260246000fd5b6040519080825280601f01601f191660200182016040528015612d6c5781602001600182028036833780820191505090505b509050600060068251612d7f91906151e0565b90508893505b600a84612d929190615402565b6030612d9e9190615159565b60f81b828280612dad9061535d565b935081518110612de6577f4e487b7100000000000000000000000000000000000000000000000000000000600052603260045260246000fd5b60200101907effffffffffffffffffffffffffffffffffffffffffffffffffffffffffffff1916908160001a905350600a84612e2291906151af565b935060008411612d8557600090505b8551811015612ef957858181518110612e73577f4e487b7100000000000000000000000000000000000000000000000000000000600052603260045260246000fd5b602001015160f81c60f81b828281518110612eb7577f4e487b7100000000000000000000000000000000000000000000000000000000600052603260045260246000fd5b60200101907effffffffffffffffffffffffffffffffffffffffffffffffffffffffffffff1916908160001a9053508080612ef1906153b9565b915050612e31565b600090505b8451811015612fde57848181518110612f40577f4e487b7100000000000000000000000000000000000000000000000000000000600052603260045260246000fd5b602001015160f81c60f81b826005838551612f5b9190615159565b612f6591906151e0565b81518110612f9c577f4e487b7100000000000000000000000000000000000000000000000000000000600052603260045260246000fd5b60200101907effffffffffffffffffffffffffffffffffffffffffffffffffffffffffffff1916908160001a9053508080612fd6906153b9565b915050612efe565b81975050505050505050919050565b6000600660003373ffffffffffffffffffffffffffffffffffffffff1673ffffffffffffffffffffffffffffffffffffffff16815260200190815260200160002060009054906101000a900460ff1661304557600080fd5b8282600073ffffffffffffffffffffffffffffffffffffffff16600260009054906101000a900473ffffffffffffffffffffffffffffffffffffffff1673ffffffffffffffffffffffffffffffffffffffff16148061314f5750600260009054906101000a900473ffffffffffffffffffffffffffffffffffffffff1673ffffffffffffffffffffffffffffffffffffffff16630e97242183836040518363ffffffff1660e01b81526004016130fc92919061506d565b602060405180830381600087803b15801561311657600080fd5b505af115801561312a573d6000803e3d6000fd5b505050506040513d601f19601f8201168201806040525081019061314e9190614ba0565b5b61315857600080fd5b6131628585613cfa565b9250505092915050565b6016805461317990615387565b80601f01602080910402602001604051908101604052809291908181526020018280546131a590615387565b80156131f25780601f106131c7576101008083540402835291602001916131f2565b820191906000526020600020905b8154815290600101906020018083116131d557829003601f168201915b505050505081565b6000601160008473ffffffffffffffffffffffffffffffffffffffff1673ffffffffffffffffffffffffffffffffffffffff16815260200190815260200160002060008373ffffffffffffffffffffffffffffffffffffffff1673ffffffffffffffffffffffffffffffffffffffff16815260200190815260200160002060009054906101000a900460ff16905092915050565b600660003373ffffffffffffffffffffffffffffffffffffffff1673ffffffffffffffffffffffffffffffffffffffff16815260200190815260200160002060009054906101000a900460ff166132e457600080fd5b81600073ffffffffffffffffffffffffffffffffffffffff166010600083815260200190815260200160002060009054906101000a900473ffffffffffffffffffffffffffffffffffffffff1673ffffffffffffffffffffffffffffffffffffffff16141561335257600080fd5b8282600073ffffffffffffffffffffffffffffffffffffffff16600260009054906101000a900473ffffffffffffffffffffffffffffffffffffffff1673ffffffffffffffffffffffffffffffffffffffff16148061345c5750600260009054906101000a900473ffffffffffffffffffffffffffffffffffffffff1673ffffffffffffffffffffffffffffffffffffffff1663d4d33ece83836040518363ffffffff1660e01b81526004016134099291906150bf565b602060405180830381600087803b15801561342357600080fd5b505af1158015613437573d6000803e3d6000fd5b505050506040513d601f19601f8201168201806040525081019061345b9190614ba0565b5b61346557600080fd5b6000601786815481106134a1577f4e487b7100000000000000000000000000000000000000000000000000000000600052603260045260246000fd5b90600052602060002090600602019050848160000181905550428160010181905550857fe8f9632655b904646afd3c4ef1521daacf1ab99809abd113bfb56eff12828e6e866040516134f39190615052565b60405180910390a2505050505050565b600a60009054906101000a900473ffffffffffffffffffffffffffffffffffffffff1673ffffffffffffffffffffffffffffffffffffffff163373ffffffffffffffffffffffffffffffffffffffff161461355d57600080fd5b83836015919061356e92919061475a565b5081816016919061358092919061475a565b5050505050565b600081836135959190615159565b9050828110156135ce577f4e487b7100000000000000000000000000000000000000000000000000000000600052600160045260246000fd5b92915050565b60008273ffffffffffffffffffffffffffffffffffffffff166010600084815260200190815260200160002060009054906101000a900473ffffffffffffffffffffffffffffffffffffffff1673ffffffffffffffffffffffffffffffffffffffff1614905092915050565b6000600860008473ffffffffffffffffffffffffffffffffffffffff1673ffffffffffffffffffffffffffffffffffffffff16815260200190815260200160002060009054906101000a900460ff16806137535750601160006010600085815260200190815260200160002060009054906101000a900473ffffffffffffffffffffffffffffffffffffffff1673ffffffffffffffffffffffffffffffffffffffff1673ffffffffffffffffffffffffffffffffffffffff16815260200190815260200160002060008473ffffffffffffffffffffffffffffffffffffffff1673ffffffffffffffffffffffffffffffffffffffff16815260200190815260200160002060009054906101000a900460ff165b905092915050565b82600073ffffffffffffffffffffffffffffffffffffffff166010600083815260200190815260200160002060009054906101000a900473ffffffffffffffffffffffffffffffffffffffff1673ffffffffffffffffffffffffffffffffffffffff1614156137c957600080fd5b836137d433826135d4565b806137e557506137e43382613640565b5b806137f657506137f53382613e55565b5b6137ff57600080fd5b868686600073ffffffffffffffffffffffffffffffffffffffff16600460009054906101000a900473ffffffffffffffffffffffffffffffffffffffff1673ffffffffffffffffffffffffffffffffffffffff16148061390c5750600460009054906101000a900473ffffffffffffffffffffffffffffffffffffffff1673ffffffffffffffffffffffffffffffffffffffff1663f7ebc39a8484846040518463ffffffff1660e01b81526004016138b993929190614f12565b602060405180830381600087803b1580156138d357600080fd5b505af11580156138e7573d6000803e3d6000fd5b505050506040513d601f19601f8201168201806040525081019061390b9190614ba0565b5b61391557600080fd5b61391f8a896135d4565b61392857600080fd5b600073ffffffffffffffffffffffffffffffffffffffff168973ffffffffffffffffffffffffffffffffffffffff16141561396257600080fd5b8973ffffffffffffffffffffffffffffffffffffffff168973ffffffffffffffffffffffffffffffffffffffff16141561399b57600080fd5b6139a58a89613ec1565b6012600089815260200190815260200160002060006101000a81549073ffffffffffffffffffffffffffffffffffffffff0219169055600073ffffffffffffffffffffffffffffffffffffffff168a73ffffffffffffffffffffffffffffffffffffffff167f8c5be1e5ebec7d5bd14f71427d1e84f3dd0314c0f7b2291e5b200ac8c7c3b9258a604051613a399190615052565b60405180910390a3613a4b89896143a7565b858015613a5d5750613a5c896144fd565b5b15613af3578873ffffffffffffffffffffffffffffffffffffffff1663f0b9e5ba8b8a8a6040518463ffffffff1660e01b8152600401613a9f93929190614f49565b602060405180830381600087803b158015613ab957600080fd5b505af1158015613acd573d6000803e3d6000fd5b505050506040513d601f19601f82011682018060405250810190613af19190614bf2565b505b8873ffffffffffffffffffffffffffffffffffffffff168a73ffffffffffffffffffffffffffffffffffffffff167fddf252ad1be2c89b69c2b068fc378daa952ba7f163c4a11628f55a4df523b3ef8a604051613b509190615052565b60405180910390a350505050505050505050565b60006010600083815260200190815260200160002060009054906101000a900473ffffffffffffffffffffffffffffffffffffffff169050600073ffffffffffffffffffffffffffffffffffffffff168173ffffffffffffffffffffffffffffffffffffffff161415613bd657600080fd5b613be08183613ec1565b613bf66001600d5461451090919063ffffffff16565b600d819055506000600f60008481526020019081526020016000205490506000600e6000600d548152602001908152602001600020549050600f600085815260200190815260200160002060009055600e6000600d5481526020019081526020016000206000905580600e60008481526020019081526020016000208190555081600f600083815260200190815260200160002081905550600073ffffffffffffffffffffffffffffffffffffffff168373ffffffffffffffffffffffffffffffffffffffff167fddf252ad1be2c89b69c2b068fc378daa952ba7f163c4a11628f55a4df523b3ef86604051613cec9190615052565b60405180910390a350505050565b6000806040518060c00160405280858152602001428152602001600a8152602001600a8152602001600a81526020016040518060400160405280600481526020017f746573740000000000000000000000000000000000000000000000000000000081525081525090506017819080600181540180825580915050600190039060005260206000209060060201600090919091909150600082015181600001556020820151816001015560408201518160020155606082015181600301556080820151816004015560a0820151816005019080519060200190613dde9291906147e0565b5050506001601780549050613df391906151e0565b9150613dff838361455d565b8273ffffffffffffffffffffffffffffffffffffffff16827f0ae5a7603f377028e42c5beae3d426a4727ca0fe39c87094faf07214a717fa2686604051613e469190615052565b60405180910390a35092915050565b60008273ffffffffffffffffffffffffffffffffffffffff166012600084815260200190815260200160002060009054906101000a900473ffffffffffffffffffffffffffffffffffffffff1673ffffffffffffffffffffffffffffffffffffffff1614905092915050565b600073ffffffffffffffffffffffffffffffffffffffff168273ffffffffffffffffffffffffffffffffffffffff161415613efb57600080fd5b6000601460008381526020019081526020016000205490506000613f6b6001601360008773ffffffffffffffffffffffffffffffffffffffff1673ffffffffffffffffffffffffffffffffffffffff1681526020019081526020016000208054905061451090919063ffffffff16565b90506000601360008673ffffffffffffffffffffffffffffffffffffffff1673ffffffffffffffffffffffffffffffffffffffff1681526020019081526020016000208281548110613fe6577f4e487b7100000000000000000000000000000000000000000000000000000000600052603260045260246000fd5b9060005260206000200154905060006010600086815260200190815260200160002060006101000a81548173ffffffffffffffffffffffffffffffffffffffff021916908373ffffffffffffffffffffffffffffffffffffffff16021790555080601360008773ffffffffffffffffffffffffffffffffffffffff1673ffffffffffffffffffffffffffffffffffffffff16815260200190815260200160002084815481106140be577f4e487b7100000000000000000000000000000000000000000000000000000000600052603260045260246000fd5b906000526020600020018190555082601460008381526020019081526020016000208190555060008390505b6001601360008873ffffffffffffffffffffffffffffffffffffffff1673ffffffffffffffffffffffffffffffffffffffff1681526020019081526020016000208054905061413991906151e0565b81101561426657601360008773ffffffffffffffffffffffffffffffffffffffff1673ffffffffffffffffffffffffffffffffffffffff16815260200190815260200160002060018261418c9190615159565b815481106141c3577f4e487b7100000000000000000000000000000000000000000000000000000000600052603260045260246000fd5b9060005260206000200154601360008873ffffffffffffffffffffffffffffffffffffffff1673ffffffffffffffffffffffffffffffffffffffff1681526020019081526020016000208281548110614245577f4e487b7100000000000000000000000000000000000000000000000000000000600052603260045260246000fd5b9060005260206000200181905550808061425e906153b9565b9150506140ea565b50601360008673ffffffffffffffffffffffffffffffffffffffff1673ffffffffffffffffffffffffffffffffffffffff1681526020019081526020016000208054806142dc577f4e487b7100000000000000000000000000000000000000000000000000000000600052603160045260246000fd5b600190038181906000526020600020016000905590556000601360008773ffffffffffffffffffffffffffffffffffffffff1673ffffffffffffffffffffffffffffffffffffffff16815260200190815260200160002080549050141561438957601360008673ffffffffffffffffffffffffffffffffffffffff1673ffffffffffffffffffffffffffffffffffffffff16815260200190815260200160002060006143889190614866565b5b60146000858152602001908152602001600020600090555050505050565b600073ffffffffffffffffffffffffffffffffffffffff168273ffffffffffffffffffffffffffffffffffffffff1614156143e157600080fd5b816010600083815260200190815260200160002060006101000a81548173ffffffffffffffffffffffffffffffffffffffff021916908373ffffffffffffffffffffffffffffffffffffffff1602179055506000601360008473ffffffffffffffffffffffffffffffffffffffff1673ffffffffffffffffffffffffffffffffffffffff168152602001908152602001600020805490509050601360008473ffffffffffffffffffffffffffffffffffffffff1673ffffffffffffffffffffffffffffffffffffffff168152602001908152602001600020829080600181540180825580915050600190039060005260206000200160009091909190915055806014600084815260200190815260200160002081905550505050565b600080823b905060008111915050919050565b600082821115614549577f4e487b7100000000000000000000000000000000000000000000000000000000600052600160045260246000fd5b818361455591906151e0565b905092915050565b600073ffffffffffffffffffffffffffffffffffffffff166010600083815260200190815260200160002060009054906101000a900473ffffffffffffffffffffffffffffffffffffffff1673ffffffffffffffffffffffffffffffffffffffff16146145c957600080fd5b6145d382826143a7565b80600e6000600d54815260200190815260200160002081905550600d54600f60008381526020019081526020016000208190555061461d6001600d5461358790919063ffffffff16565b600d819055508173ffffffffffffffffffffffffffffffffffffffff16600073ffffffffffffffffffffffffffffffffffffffff167fddf252ad1be2c89b69c2b068fc378daa952ba7f163c4a11628f55a4df523b3ef836040516146819190615052565b60405180910390a35050565b82805461469990615387565b90600052602060002090601f0160209004810192826146bb5760008555614709565b82601f106146cc5780548555614709565b8280016001018555821561470957600052602060002091601f016020900482015b828111156147085782548255916001019190600101906146ed565b5b5090506147169190614887565b5090565b50805461472690615387565b6000825580601f106147385750614757565b601f0160209004906000526020600020908101906147569190614887565b5b50565b82805461476690615387565b90600052602060002090601f01602090048101928261478857600085556147cf565b82601f106147a157803560ff19168380011785556147cf565b828001600101855582156147cf579182015b828111156147ce5782358255916020019190600101906147b3565b5b5090506147dc9190614887565b5090565b8280546147ec90615387565b90600052602060002090601f01602090048101928261480e5760008555614855565b82601f1061482757805160ff1916838001178555614855565b82800160010185558215614855579182015b82811115614854578251825591602001919060010190614839565b5b5090506148629190614887565b5090565b50805460008255906000526020600020908101906148849190614887565b50565b5b808211156148a0576000816000905550600101614888565b5090565b6000813590506148b3816154d1565b92915050565b6000813590506148c8816154e8565b92915050565b6000813590506148dd816154ff565b92915050565b6000815190506148f2816154ff565b92915050565b60008135905061490781615516565b92915050565b60008151905061491c81615516565b92915050565b60008083601f84011261493457600080fd5b8235905067ffffffffffffffff81111561494d57600080fd5b60208301915083600182028301111561496557600080fd5b9250929050565b60008083601f84011261497e57600080fd5b8235905067ffffffffffffffff81111561499757600080fd5b6020830191508360018202830111156149af57600080fd5b9250929050565b6000813590506149c58161552d565b92915050565b6000602082840312156149dd57600080fd5b60006149eb848285016148a4565b91505092915050565b600060208284031215614a0657600080fd5b6000614a14848285016148b9565b91505092915050565b60008060408385031215614a3057600080fd5b6000614a3e858286016148a4565b9250506020614a4f858286016148a4565b9150509250929050565b600080600060608486031215614a6e57600080fd5b6000614a7c868287016148a4565b9350506020614a8d868287016148a4565b9250506040614a9e868287016149b6565b9150509250925092565b600080600080600060808688031215614ac057600080fd5b6000614ace888289016148a4565b9550506020614adf888289016148a4565b9450506040614af0888289016149b6565b935050606086013567ffffffffffffffff811115614b0d57600080fd5b614b1988828901614922565b92509250509295509295909350565b60008060408385031215614b3b57600080fd5b6000614b49858286016148a4565b9250506020614b5a858286016148ce565b9150509250929050565b60008060408385031215614b7757600080fd5b6000614b85858286016148a4565b9250506020614b96858286016149b6565b9150509250929050565b600060208284031215614bb257600080fd5b6000614bc0848285016148e3565b91505092915050565b600060208284031215614bdb57600080fd5b6000614be9848285016148f8565b91505092915050565b600060208284031215614c0457600080fd5b6000614c128482850161490d565b91505092915050565b60008060008060408587031215614c3157600080fd5b600085013567ffffffffffffffff811115614c4b57600080fd5b614c578782880161496c565b9450945050602085013567ffffffffffffffff811115614c7657600080fd5b614c828782880161496c565b925092505092959194509250565b600060208284031215614ca257600080fd5b6000614cb0848285016149b6565b91505092915050565b60008060408385031215614ccc57600080fd5b6000614cda858286016149b6565b9250506020614ceb858286016148a4565b9150509250929050565b60008060408385031215614d0857600080fd5b6000614d16858286016149b6565b9250506020614d27858286016148ce565b9150509250929050565b60008060408385031215614d4457600080fd5b6000614d52858286016149b6565b9250506020614d63858286016149b6565b9150509250929050565b6000614d798383614ebe565b60208301905092915050565b614d8e81615226565b82525050565b614d9d81615214565b82525050565b6000614dae826150f8565b614db88185615126565b9350614dc3836150e8565b8060005b83811015614df4578151614ddb8882614d6d565b9750614de683615119565b925050600181019050614dc7565b5085935050505092915050565b614e0a81615238565b82525050565b6000614e1b82615103565b614e258185615137565b9350614e3581856020860161532a565b614e3e816154c0565b840191505092915050565b614e528161529a565b82525050565b614e61816152be565b82525050565b614e70816152e2565b82525050565b614e7f81615306565b82525050565b6000614e908261510e565b614e9a8185615148565b9350614eaa81856020860161532a565b614eb3816154c0565b840191505092915050565b614ec781615290565b82525050565b614ed681615290565b82525050565b6000602082019050614ef16000830184614d94565b92915050565b6000602082019050614f0c6000830184614d85565b92915050565b6000606082019050614f276000830186614d94565b614f346020830185614d94565b614f416040830184614ecd565b949350505050565b6000606082019050614f5e6000830186614d94565b614f6b6020830185614ecd565b8181036040830152614f7d8184614e10565b9050949350505050565b60006020820190508181036000830152614fa18184614da3565b905092915050565b6000602082019050614fbe6000830184614e01565b92915050565b6000602082019050614fd96000830184614e49565b92915050565b6000602082019050614ff46000830184614e58565b92915050565b600060208201905061500f6000830184614e67565b92915050565b600060208201905061502a6000830184614e76565b92915050565b6000602082019050818103600083015261504a8184614e85565b905092915050565b60006020820190506150676000830184614ecd565b92915050565b60006040820190506150826000830185614ecd565b61508f6020830184614d94565b9392505050565b60006040820190506150ab6000830185614ecd565b6150b86020830184614e01565b9392505050565b60006040820190506150d46000830185614ecd565b6150e16020830184614ecd565b9392505050565b6000819050602082019050919050565b600081519050919050565b600081519050919050565b600081519050919050565b6000602082019050919050565b600082825260208201905092915050565b600082825260208201905092915050565b600082825260208201905092915050565b600061516482615290565b915061516f83615290565b9250827fffffffffffffffffffffffffffffffffffffffffffffffffffffffffffffffff038211156151a4576151a3615433565b5b828201905092915050565b60006151ba82615290565b91506151c583615290565b9250826151d5576151d4615462565b5b828204905092915050565b60006151eb82615290565b91506151f683615290565b92508282101561520957615208615433565b5b828203905092915050565b600061521f82615270565b9050919050565b600061523182615270565b9050919050565b60008115159050919050565b60007fffffffff0000000000000000000000000000000000000000000000000000000082169050919050565b600073ffffffffffffffffffffffffffffffffffffffff82169050919050565b6000819050919050565b60006152a5826152ac565b9050919050565b60006152b782615270565b9050919050565b60006152c9826152d0565b9050919050565b60006152db82615270565b9050919050565b60006152ed826152f4565b9050919050565b60006152ff82615270565b9050919050565b600061531182615318565b9050919050565b600061532382615270565b9050919050565b60005b8381101561534857808201518184015260208101905061532d565b83811115615357576000848401525b50505050565b600061536882615290565b9150600082141561537c5761537b615433565b5b600182039050919050565b6000600282049050600182168061539f57607f821691505b602082108114156153b3576153b2615491565b5b50919050565b60006153c482615290565b91507fffffffffffffffffffffffffffffffffffffffffffffffffffffffffffffffff8214156153f7576153f6615433565b5b600182019050919050565b600061540d82615290565b915061541883615290565b92508261542857615427615462565b5b828206905092915050565b7f4e487b7100000000000000000000000000000000000000000000000000000000600052601160045260246000fd5b7f4e487b7100000000000000000000000000000000000000000000000000000000600052601260045260246000fd5b7f4e487b7100000000000000000000000000000000000000000000000000000000600052602260045260246000fd5b6000601f19601f8301169050919050565b6154da81615214565b81146154e557600080fd5b50565b6154f181615226565b81146154fc57600080fd5b50565b61550881615238565b811461551357600080fd5b50565b61551f81615244565b811461552a57600080fd5b50565b61553681615290565b811461554157600080fd5b5056fea2646970667358221220a9fc99e4f9b16576ae736cce070e6f15c38b79f5e726f05b4cc7916ee8d98fe964736f6c6343000804003368747470733a2f2f6865726f696e66696e6974792e636f6d2f6572632f3732312f6865726f732f",
  "linkReferences": {},
  "deployedLinkReferences": {}
}